:1030480004FB09072F312F382E6D70331404FB0948
:10305800072F312F312E6D70330D06F9010202064C
:0A306800F901030306F902010F113C
:1030BE00014C0F023504D2073E1801010000000139
:10271100E4F550F551AF51AE501231CEBFFF0885EF
:102721005048855149800F0551E55170020550C34C
:10273100E550940240DFE549454870030227DAE598
:102741004964FD7004E548640170427FFA7E01121C
:1027510031CE8F3B7FFB7E011231CE8F3D7FFC7EE0
:10276100011231CE8F3AE4FFFE12326C75480075CA
:102771004905AD3B7F027E0012322CAD3D7F037EC9
:102781000012322CAD3A7F047E0002322CE4FFFEAF
:102791001231CEEF7F00FEC007C0060F7E0012315E
:1027A100CEEFFDD0E0F535D0E04DF536E54924FD1D
:1027B100FFE54834FFFE1231CE8F3BE54924FEFF91
:1027C100E54834FFFE1231CE8F3DE54924FFFFE598
:0927D1004834FFFE1231CE8F3AAC
:0127DA0022DC
:1027DB00122711D2AE5387DF122470122F3DAF2A6E
:1027EB0012227F12003E1231B412307212000E12FE
:1027FB003280D2AF43BB30C283D2C4D2C57BFF7A07
:10280B0030796C7D061230E320030A1232CB8F46EF
:10281B00121C5D80F33003F020040312295CA20428
:10282B009209854B5012193F1232CB8F46E5462544
:10283B0034F527E433F526AF27121075E4F534751C
:10284B005F02756008756101AB2AAA297D07FF122B
:10285B0029FE755F04756008756101AB49AA487D57
:10286B00077F201229FE755F04756008756101AB47
:10287B0036AA357D067F201229FEE52A64144529E8
:10288B00700312255A3002807BFF7A3079487D0D18
:08289B001230E3C2020228130F
:03000B00022B19AC
:102B1900C0E0C0D0758A00758CDC3000160524E54C
:102B290024B46405052B752400E52BB43C05052D5B
:102B3900752B0030014A054AC2C4C2C5D283C2827C
:102B4900E54AB46405153A754A00C3E53A648094C8
:102B5900805005153D753A3BC3E53D64809480502E
:102B690005153B753D3BE53B7016E53D7012E53AB1
:102B7900700EC201F52ED202D2C4D2C5C283D2824E
:052B8900D0D0D0E032C5
:03003B000228A3F5
:1028A300C0E0C0F0C083C082C0D075D000C000C0FB
:0D28B30001C002C003C004C005C006C0077C
:1028C000C2D88530EAE52FF5FAE42530F5307424D6
:1028D000352FF52F122D2CE53360660523E5237087
:1028E000020522C39414E522940040557522007518
:1028F0002300E533B40124753300752200752300ED
:10290000E528B40B03752C0BE528B41503752C15BD
:10291000E528641F702B752C1F8026E533B4022137
:10292000753300752200752300E528B40B03752C60
:102930000CE528B41503752C16E528B41F03752C77
:012940002076
:10294100D007D006D005D004D003D002D001D000EA
:0B295100D0D0D082D083D0F0D0E03294
:0300230002316344
:10316300C0E0C0D0309904C299C205309808C29813
:0B317300E59924CAF534D0D0D0E0323A
:030043000231FE89
:1031FE00C0E0E59A30E105539AFDC206E59A30E04B
:07320E0003539AFED0E032E9
:03003300022C6D2F
:102C6D00C0E0C0F0C083C082C0D075D000C000C02D
:102C7D0001C002C003C004C005C006C00712325710
:102C8D00AD3BAF49AE4812322CE5492401FFE43586
:102C9D0048FEAD3D12322CE5492402FFE43548FED5
:102CAD00AD3A12322C5387DFD007D006D005D004B1
:102CBD00D003D002D001D000D0D0D082D083D0F0BC
:032CCD00D0E03222
:10000E0053877F759850438E04759CDC438E014355
:05001E008E10D2AC229F
:0932B0002005FDEFD205F599227D
:062F79008B758A76897752
:102F7F00E4FEAB75AA76A9778E8275830012267D43
:102F8F00FF60061232B00E80E9AB75AA76A977AF53
:0F2F9F00068F8275830012267D7004FF1232B0F8
:012FAE002200
:05003600AE070232B02C
:10328000538EF7759A50538EFB759CFD438E1043F9
:03329000AF012269
:0932B9002006FDEFD206F59B2270
:062FAF008B788A79897A13
:102FB500E4FEAB78AA79A97A8E8275830012267D04
:102FC500FF60061232B90E80E9AB78AA79A97AAF0B
:0F2FD500068F8275830012267D7004FF1232B9B9
:012FE40022CA
:0630E3008B518A52895353
:1030E900E4FEEEC39D5015AB51AA52A9538E8275C9
:0C30F900830012267DFF1232B90E80E623
:0131050022A7
:0D002600E4F5C7F5C5F5C675C380F5C42225
:1031CE0075C78275C5018FC48EC375C65A75C6A5DF
:0831DE0000AFC27E00020026D2
:10322C0075C78275C5028FC48EC38DC275C65A759B
:06323C00C6A500020026F9
:10326C0075C78275C5038FC48EC375C65A75C6A53E
:04327C000002002626
:1031B400538E7F5389F0438901E4F58A758CDCC210
:0A31C4008DD28CD2A9D2AFC2B9227D
:10307200E4F5D8F5E9F5F9F5D9752F24F530853061
:10308200EAE52FF5FAE42530F5307424352FF52FD3
:0630920075DA49D2DE22CE
:0532CB00AF2CE4F52C1E
:0132D00022DB
:10329300E4FF20A7027F0B20A6027F1520A5027F53
:0132A3001F0B
:0132A4002207
:102D2C008547381232938F47E538604CF5280537C4
:102D3C00E537C39419500AE5477006F5370533801B
:102D4C0023E537C39419401CE5476018E538B40BEC
:102D5C0003752C0DE538B41503752C17E538B41F25
:102D6C0003752C21E5477010E538600CE537C394EA
:092D7C00194005E4F52CF537229D
:103098004B3153004B3144004B314C004B32530001
:1030A8004B3244004B324C004B3353004B334400FB
:0630B8004B334C00300018
:101075008F50E550B40B137BFF7A3079987557087C
:101085007558017D06E4FF122E2EE550B40C137B36
:10109500FF7A30799C7557087558017D06E4FF1273
:1010A5002E2EE550B40D137BFF7A3079A0755708C5
:1010B5007558017D06E4FF122E2EE550B415137BFD
:1010C500FF7A3079A47557087558017D06E4FF123B
:1010D5002E2EE550B416137BFF7A3079A875570884
:1010E5007558017D06E4FF122E2EE550B417137BCB
:1010F500FF7A3079AC7557087558017D06E4FF1203
:101105002E2EE550B41F137BFF7A3079B075570842
:101115007558017D06E4FF122E2EE550B420137B91
:10112500FF7A3079B47557087558017D06E4FF12CA
:101135002E2EE550B421137BFF7A3079B875570808
:101145007558017D06E4FF122E2EE52A640A45290D
:101155006010E52A640C45296008E52A640E4529D6
:101165007063E550B40B2274FE252AF52A74FF3509
:1011750029F529C3E52A940AE5299400500675291D
:1011850000752A0EAF2A12227FE550B4152174028C
:10119500252AF52AE43529F529D3E52A940EE529EA
:1011A50094004006752900752A0AAF2A12227FE5A8
:1011B50050B41F11740A252AF52AE43529F529E4C6
:1011C500F550122F3DE52A641445296013E52A647C
:1011D500164529600BE52A6418452960030216891E
:1011E500AF2AAD50122EC0E52A641445297020E5BA
:1011F50050B40B02D200E550B41502C200E55064AC
:10120500176003021689F524F52BF52D021689E5DD
:101215002A64164529600302161D30010302154094
:10122500E550B41F0D052EE52E75F00312264285F7
:10123500F02EE52E14700302131F147003021425FB
:1012450024026003021532E550640D6005E550B4D3
:101255000B0E053BD3E53B648094BC4003E4F53BB2
:10126500E55064176005E550B4150E153BC3E53B25
:10127500648094805003753B3CC3E53B6480948A4D
:1012850050297BFF7A3079BC755710E4F5587D02FB
:101295007F10122E2EE53BFB3395E0FA755F017545
:1012A5006010E4F5617D027F188014E53BFB339502
:1012B500E0FA755F02756010E4F5617D027F10123A
:1012C50029FEC3E53D6480948A50297BFF7A3079F5
:1012D500BC7557107558017D027F30122E2EE53DE5
:1012E500FB3395E0FA755F017560107561017D024C
:1012F5007F388014E53DFB3395E0FA755F02756034
:10130500107561017D027F301229FEC3E53A6480C4
:10131500948A40030214120213ECE550640D600533
:10132500E550B40B0E053DC3E53D648094BC400318
:10133500E4F53DE55064176005E550B4150E153D1F
:10134500C3E53D648094805003753D3BC3E53B6434
:1013550080948A50297BFF7A3079BC75571075586F
:10136500017D027F10122E2EE53BFB3395E0FA75C9
:101375005F017560107561017D027F188014E53B82
:10138500FB3395E0FA755F027560107561017D02AA
:101395007F101229FEC3E53D6480948A50297BFFA6
:1013A5007A3079BC755710E4F5587D027F30122EDE
:1013B5002EE53DFB3395E0FA755F01756010E4F5A8
:1013C500617D027F388014E53DFB3395E0FA755F5A
:1013D50002756010E4F5617D027F301229FEC3E5D8
:1013E5003A6480948A50267BFF7A3079BC75571011
:1013F5007558017D027F50122E2EE53AFB3395E09C
:10140500FA755F01756010756101021515E53AFB06
:101415003395E0FA755F0275601075610102152B51
:10142500E550640D6005E550B40B0E053AC3E53A89
:10143500648094BC4003E4F53AE55064176005E523
:1014450050B4150E153AC3E53A648094805003757F
:101455003A3BC3E53B6480948A50297BFF7A307917
:10146500BC7557107558017D027F10122E2EE53B75
:10147500FB3395E0FA755F017560107561017D02BA
:101485007F188014E53BFB3395E0FA755F027560C4
:10149500107561017D027F101229FEC3E53D648050
:1014A500948A50297BFF7A3079BC7557107558019D
:1014B5007D027F30122E2EE53DFB3395E0FA755FF8
:1014C500017560107561017D027F388014E53DFB73
:1014D5003395E0FA755F027560107561017D027FD5
:1014E500301229FEC3E53A6480948A50297BFF7A3D
:1014F5003079BC755710E4F5587D027F50122E2EB9
:10150500E53AFB3395E0FA755F01756010E4F56126
:101515007D027F588014E53AFB3395E0FA755F024A
:10152500756010E4F5617D027F501229FEE5506477
:10153500216003021689D201021689C3E53B648046
:10154500948A50297BFF7A3079BC755710755801FC
:101555007D027F10122E2EE53BFB3395E0FA755F79
:10156500017560107561017D027F188014E53BFBF4
:101575003395E0FA755F027560107561017D027F34
:10158500101229FEC3E53D6480948A50297BFF7AB9
:101595003079BC7557107558017D027F30122E2E9B
:1015A500E53DFB3395E0FA755F01756010756101E6
:1015B5007D027F388014E53DFB3395E0FA755F02C7
:1015C5007560107561017D027F301229FEC3E53A11
:1015D5006480948A50297BFF7A3079BC75571075E1
:1015E50058017D027F50122E2EE53AFB3395E0FA25
:1015F500755F017560107561017D027F588014E586
:101605003AFB3395E0FA755F027560107561017DEF
:10161500027F501229FE806CE52A64184529706402
:10162500E550640B6005E550B40D0E1539C3E53979
:10163500648094805003753902E55064156005E5B2
:1016450050B4170E0539D3E539648094824003E41C
:10165500F539E550641F702CE5397005753C068039
:1016650012E539B40105753C088008E539B4020373
:10167500753C0AE53C252AF52AE43529F529E4F5E2
:1016850050122F3DE52A641E45296013E52A642082
:101695004529600BE52A64224529600302193EE5C8
:1016A5002A641E45296003021897D204E550640B8D
:1016B5006009E550640D6003021787743E254BF8F9
:1016C50006D3E53E648094E34003E4F53ED3E53F6D
:1016D5006480948C4003753F01E53F64016023E518
:1016E5003F6403601DE53F64056017E53F640760DF
:1016F50011E53F6408600BE53F640A6005E53FB40A
:101705000C0BD3E5406480949F404D8048E53F64D1
:10171500046011E53F6406600BE53F64096005E57B
:101725003FB40B0BD3E5406480949E402B8026E5A7
:101735003FB40224E53E75F004122642AFF0EF7087
:101745000BD3E5406480949D400E8009D3E5406449
:1017550080949C4003754001D3E541648094974093
:1017650003E4F541D3E542648094BB4003E4F542CC
:10177500D3E543648094BB5003021860E4F543024B
:101785001860E55064156009E55064176003021898
:1017950060743E254BF816C3E53E64809480500383
:1017A500753E63C3E53F648094815003753F0CE546
:1017B5003F64016023E53F6403601DE53F64056008
:1017C50017E53F64076011E53F6408600BE53F647A
:1017D5000A6005E53FB40C0EC3E540648094815072
:1017E5005675401F8051E53F64046011E53F64066E
:1017F500600BE53F64096005E53FB40B0EC3E540AA
:1018050064809481503175401E802CE53FB40227D9
:10181500E53E75F004122642AFF0EF700EC3E540C9
:1018250064809481501175401D800CC3E54064802F
:101835009481500375401CC3E54164809480500336
:10184500754117C3E54264809480500375423BC3DC
:10185500E54364809480500375433BE550B41F0B0A
:10186500054BE54B75F0068485F04BE5506421602A
:1018750003021919C3E52A953CF52AE5299400F5D3
:1018850029300405C204121AE3122F3D12237D02EA
:101895001919E52A642045297075122E7AE55064D8
:1018A5000B6005E550B40D1D30A31A054C7BFF7A7E
:1018B500307962E4FD1230E3E54C75F01F122642E3
:1018C50085F04C8027E55064156005E550B4171C7C
:1018D50030A319154C7BFF7A307967E4FD1230E3AC
:1018E500C3E54C648094805003754C1E7BFF7A30B1
:1018F5007955E4FD1230E3E54CFB3395E0FA755F6D
:1019050002756010E4F561FD7F501229FE8005AF78
:1019150050121C5DE550B42020C3E52A953CF52AFC
:10192500E5299400F529300402C204300705C207F1
:0A193500E4F545122F3D12237D2238
:102EC0008D51EF24EA600D24FE600E2404700D1273
:102ED0002D858008122B8E800312237DE551B420AE
:102EE0001E74F6252AF52A74FF3529F529122F3D7F
:102EF000AF2A12227FE52A640C45297002F52E22A2
:101C5D008F51E551B40B137BFF7A30799875570886
:101C6D007558017D06E4FF122E2EE551B40C137B41
:101C7D00FF7A30799C7557087558017D06E4FF127F
:101C8D002E2EE551B40D137BFF7A3079A0755708D0
:101C9D007558017D06E4FF122E2EE551B415137B08
:101CAD00FF7A3079A47557087558017D06E4FF1247
:101CBD002E2EE551B416137BFF7A3079A87557088F
:101CCD007558017D06E4FF122E2EE551B417137BD6
:101CDD00FF7A3079AC7557087558017D06E4FF120F
:101CED002E2EE551B41F137BFF7A3079B07557084E
:101CFD007558017D06E4FF122E2EE551B420137B9D
:101D0D00FF7A3079B47557087558017D06E4FF12D6
:101D1D002E2EE551B421137BFF7A3079B875570813
:101D2D007558017D06E4FF122E2EE52A4529702AED
:101D3D00AF5112204DE551B42120E532B5361BE5EA
:101D4D0031B53516D203E4F545F529752A0AF53175
:101D5D00F532122F3DAF2A12227FE52A6422452942
:101D6D00705DD207AF5112204DE55164217050F5D1
:101D7D0045122F3D74F6252AF52A74FF3529F529CC
:101D8D00853135853236E4FFFE12326C75480075AB
:101D9D004905E535FDE4FFFE12322CAD367F017E9F
:101DAD000012322CAD3B7F027E0012322CAD3D7FF6
:101DBD00037E0012322CAD3A7F047E0012322C22AB
:02204D008F52B0
:10204F00AE31AF327C037DE81226BC8F53AE31AF79
:10205F00327C007D641226BC7C007D0A1226BC8D6A
:10206F0054AE31AF327C007D0A1226BC7C007D0A53
:10207F001226BC8D55AE31AF327C007D0A1226BCC4
:10208F008D56E552640B6006E552640D705E745315
:10209F002545F806E6D36480948940077453254597
:1020AF00F8E4F6AF54EF3395E0FE7C007D64122622
:1020BF00AAAA06AB07AF53EF3395E0FE7C037DE88A
:1020CF001226AAEF2BFBEE3AFAAF55EF3395E0FE4F
:1020DF007C007D0A1226AAEF2BFFEE3AFEAD56EDDD
:1020EF003395E0FCEF2DF532EE3CF531E5526415FA
:1020FF006006E5526417705E74532545F816E6C303
:10210F0064809480500774532545F87609AF54EFD7
:10211F003395E0FE7C007D641226AAAA06AB07AFBA
:10212F0053EF3395E0FE7C037DE81226AAEF2BFBDD
:10213F00EE3AFAAF55EF3395E0FE7C007D0A12269A
:10214F00AAEF2BFFEE3AFEAD56ED3395E0FCEF2DE7
:10215F00F532EE3CF531E552B41F0E0545D3E5459A
:0C216F00648094834003E4F54502217B6A
:05003E00C2B6C2B522AC
:052CD0002DFDEE3CFCAF
:062CD5008C518D52AB078B
:102CDB00D2B5E4FD7E007401A805088005C333CE90
:102CEB0033CED8F9FFEBF582EF558224FF92B4D2A5
:102CFB00B6C2B60DBD08DDE4FD7E007401A8050863
:102D0B008005C333CE33CED8F9FFE5515EFEE552D5
:102D1B005F4E24FF92B4D2B6C2B60DBD08DBC2B56E
:012D2B002285
:042DDE00AB07AA068F
:102DE200E4F9430301D2B5FD7E007401A805088011
:102DF20005C333CE33CED8F9FFEE5AFEEF5B4E2435
:102E0200FF92B4C2B6D2B60DBD08DDE4FDD2B6C2A1
:102E1200B630B40DA8057401088002C333D8FC4251
:0B2E2200010DBD08E8C2B5C2B4AF014D
:012E2D002282
:101AE300E4FDFC7F8E122CD5E53E75F00A122642EA
:101AF300FF3395E0FEEFC4F8540FC868FFEEC454FB
:101B0300F048FEE53E75F00A122642ADF0ED33953E
:101B1300E0FCEF7F8C122CD0E53F75F00A122642D1
:101B2300FF3395E0FEEFC4F8540FC868FFEEC454CA
:101B3300F048FEE53F75F00A122642ADF0ED33950D
:101B4300E0FCEF7F88122CD0E54075F00A122642A4
:101B5300FF3395E0FEEFC4F8540FC868FFEEC4549A
:101B6300F048FEE54075F00A122642ADF0ED3395DC
:101B7300E0FCEF2DFDEE3CFC7F86122CD5E5417594
:101B8300F00A122642FF3395E0FEEFC4F8540FC863
:101B930068FFEEC454F048FEE54175F00A12264290
:101BA300ADF0ED3395E0FCEF2DFDEE3CFC7F8412B0
:101BB3002CD5E54275F00A122642FF3395E0FEEF7D
:101BC300C4F8540FC868FFEEC454F048FEE54275EC
:101BD300F00A122642ADF0ED3395E0FCEF2DFDEE59
:101BE3003CFC7F82122CD5E54375F00A122642FF96
:101BF3003395E0FEEFC4F8540FC868FFEEC454F009
:101C030048FEE54375F00A122642ADF0ED3395E048
:101C1300FCEF2DFDEE3CFC7F80122CD5E54475F0E6
:101C23000A122642FF3395E0FEEFC4F8540FC8684A
:101C3300FFEEC454F048FEE54475F00A122642ADA7
:101C4300F0ED3395E0FCEF2DFDEE3CFC7F8A122C8A
:0A1C5300D57D807C007F8E022CD529
:10295C007F8C7E00122DDEEFC4540F75F00AA4FE9E
:10296C00EF540F2EF53E7F887E00122DDEEFC454FF
:10297C000F75F00AA4FEEF540F2EF53F7F867E00F4
:10298C00122DDEEFC4540F75F00AA4FEEF540F2E77
:10299C00F5407F847E00122DDEEFC4540F75F00AD3
:1029AC00A4FEEF540F2EF5417F827E00122DDEEF38
:1029BC00C4540F75F00AA4FEEF540F2EF5427F801D
:1029CC007E00122DDEEFC4540F75F00AA4FEEF54F6
:1029DC000F2EF5437F8A7E00122DDEEFC4540F7547
:0A29EC00F00AA4FEEF540F2EF5448C
:0129F60022BE
:0932C200D2A0D2A1C2A0C2A12237
:07000300C2A0D2A1D2A0228D
:0A32A500D2A1A2A0920CC2A1A20CBB
:0132AF0022FC
:10317E00E4FEC2A1EF30E704D2A08002C2A0D2A129
:0A318E00EF25E0FF0EBE08EAC2A123
:013198002214
:10324200E4FED2A1EF25E0FF30A003430701C2A1B3
:043252000EBE08EEB6
:013256002255
:1000460030006B6579310000000000000000000000
:100056002F000000000700070000147F147F140023
:10006600242A7F2A12006264081323003649552287
:100076005000000503000000001C22410000004162
:10008600221C000014083E08140008083E08080058
:100096000000A06000000808080808000060600072
:1000A60000002010080402003E5149453E0000426F
:1000B6007F4000004261514946002141454B3100D5
:1000C6001814127F10002745454539003C4A494916
:1000D60030000171090503003649494936000649D1
:1000E60049291E0000363600000000563600000082
:1000F60008142241000014141414140000412214A0
:100106000800020151090600324959513E007C128D
:1001160011127C007F49494936003E414141220087
:100126007F4141221C007F49494941007F09090955
:1001360001003E4149497A007F0808087F000041D6
:100146007F4100002040413F01007F08142241000A
:100156007F40404040007F020C027F007F04081071
:100166007F003E4141413E007F09090906003E41AC
:1001760051215E007F091929460046494949310047
:1001860001017F0101003F4040403F001F20402009
:100196001F003F4038403F006314081463000708FF
:1001A60070080700615149454300007F4141000046
:1001B600552A552A55000041417F000004020102DC
:1001C600040040404040400000010204000020546A
:1001D600545478007F48444438003844444420004E
:1001E600384444487F00385454541800087E0901A6
:1001F600020018A4A4A47C007F080404780000442C
:100206007D4000004080847D00007F10284400006F
:1002160000417F4000007C04180478007C08040438
:100226007800384444443800FC2424241800182458
:100236002418FC007C080404080048545454200088
:10024600043F444020003C4040207C001C204020CD
:100256001C003C4030403C004428102844001CA0B0
:10026600A0A07C004464544C4414141414141400C8
:100276000000000000000000000000000000000078
:100286000000F8000000000000003330000000000D
:10029600100C06100C0600000000000000000040D4
:1002A600C07840C0784000043F04043F04040000C6
:1002B6007088FC08300000001820FF211E0000F0A6
:1002C60008F000E018000000211C031E211E00009B
:1002D600F00888700000001E212324192721101021
:1002E600160E0000000000000000000000000000E4
:1002F6000000E0180402000000000718204000007B
:10030600020418E00000000040201807000000402A
:100316004080F0804040000202010F01020200000E
:100326000000F0000000000101011F0101010000B2
:100336000000000000000080B07000000000000017
:1003460000000000000000000101010101010100A0
:100356000000000000000000303000000000000037
:10036600000000806018040060180601000000000C
:10037600E010080810E000000F102020100F000009
:100386001010F8000000000020203F202000000090
:1003960070080808887000003028242221300000E8
:1003A600300888884830000018202020110E0000F0
:1003B60000C02010F8000000070424243F24000099
:1003C600F80888880808000019212020110E00006E
:1003D600E0108888180000000F112020110E000080
:1003E600380808C83808000000003F000000000078
:1003F60070880808887000001C222121221C000039
:10040600E010080810E0000000312222110F000061
:100416000000C0C0000000000000303000000000F6
:100426000000800000000000008060000000000066
:10043600008040201008000001020408102000403F
:10044600404040404040000404040404040400000A
:10045600081020408000000020100804020100005F
:100466007048080808F0000000003036010000C09F
:1004760030C828E810E0000718272423140B0000D2
:1004860000C038E0000000203C2302022738200884
:10049600F8888888700000203F202020110E00C0B8
:1004A600300808080838000718202020100800081F
:1004B600F808080810E000203F202020100F000850
:1004C600F88888E8081000203F202023201800081C
:1004D600F88888E8081000203F200003000000C0CC
:1004E6003008080838000007182020221E020008DD
:1004F600F808000008F808203F210101213F2000EC
:100506000808F8080800000020203F20200000000E
:10051600000808F8080800C08080807F00000008F6
:10052600F888C028180800203F2001263820000837
:10053600F8080000000000203F202020203000089E
:10054600F8F800F8F80800203F003F003F200008B8
:10055600F830C00008F808203F200007183F00E0E8
:100566001008080810E0000F10202020100F0008C7
:10057600F808080808F000203F210101010000E00A
:100586001008080810E0000F18242438504F0008FF
:10059600F8888888887000203F2000030C302000EF
:1005A600708808080838000038202121221C00180D
:1005B6000808F8080818000000203F20000000087E
:1005C600F808000008F808001F202020201F000857
:1005D60078880000C83808000007380E010000F8C7
:1005E6000800F80008F800033C0700073C03000871
:1005F6001868808068180820302C03032C302008E7
:1006060038C800C83808000000203F20000000104D
:10061600080808C8380800203826212020180000BD
:100626000000FE020202000000007F404040000081
:100636000C30C000000000000000010638C00000B9
:10064600020202FE000000004040407F0000000061
:100656000004020202040000000000000000000086
:100666000000000000000080808080808080800084
:10067600020204000000000000000000000000006C
:10068600008080808000000019242222223F20085A
:10069600F8008080000000003F112020110E0000AD
:1006A60000008080800000000E1120202011000034
:1006B6000000808088F800000E112020103F2000E6
:1006C60000808080800000001F222222221300006A
:1006D6008080F0888888180020203F2020000000B5
:1006E60000808080808000006B9494949360000862
:1006F600F8008080800000203F210000203F20007D
:10070600809898000000000020203F202000000074
:100716000000809898000000C08080807F0000085C
:10072600F8000080808000203F24022D3020000049
:100736000808F8000000000020203F20200000806C
:1007460080808080808000203F20003F20003F8006
:1007560080008080800000203F210000203F200094
:1007660000808080800000001F202020201F008045
:100776008000808000000080FFA12020110E000074
:1007860000008080808000000E112020A0FF808065
:100796008080008080800020203F21200001000012
:1007A60000808080808000003324242424190000E7
:1007B6008080E0808000000000001F202000008074
:1007C60080000000808000001F202020103F208035
:1007D6008080000080808000010E300806010080C5
:1007E600800080008080800F300C030C300F0000EA
:1007F600808000808080000020312E0E3120008015
:100806008080000080808080818E70180601000044
:10081600808080808080000021302C2221300000E2
:10082600000000807C020200000000003F40400003
:10083600000000FF00000000000000FF00000000B4
:1008460002027C800000000040403F0000000000E3
:10085600060101020204040000000000000000007E
:10086600008070404040C0404040400011101E12C1
:100876001212FF12121210000000E0202020202089
:1008860020E0000080601F090909098989FF00002E
:1008960000E020202020202020E0000000FF42422F
:1008A6004242424242FF0000E02020E00080808079
:1008B60080F080007F22227F0000049880FF0000E5
:1008C6000000C03000000030C0000000028142324B
:1008D6000E8282827E0102002020E010008000F05D
:1008E60000408000110DFF098483404F20100B2427
:1008F60024A4FE232200C03800FF00081060000870
:100906000601FF01068180404027100C030000000D
:10091600042424242424FF24242424240400002141
:10092600211109FD834123050911292541410000B3
:10093600FC848484FC001010101010FF10100000BE
:100946003F1010103F0000010640807F000000109D
:100956001010FF9020984828090E2848A818000271
:1009660042817F0040404242427E424242400080F5
:10097600828282FE8282828282FE8282828000005F
:100986008040300F0000000000FF00000000001053
:1009960010F01F10F00040E05847405060C0004083
:1009A60022150816210000FE42424242FE00004087
:1009B6004042CC0040404040FF40404040400000A4
:1009C60000007F2010000000FF00000000000082F1
:1009D6009A9693FA5252807E121212F1111000006A
:1009E6000100FE93929392929292FE030000008081
:1009F60060F80700047454555654547404000000FB
:100A060000FF0003010545857D05050501030080FE
:100A16004020908886808080838C10204080000053
:100A26008040201807004080403F00000000004042
:100A36004042CC0040A09E8282829EA020200000E0
:100A460000003F908840432C1028464180800000DB
:100A56001715D55557557D555755D51517000040CF
:100A660040407F555555555555557F4040400010DF
:100A76001010FF9020988888E98E8888A898000230
:100A860042817F000080844B2810284780000002A6
:100A96000202020202FE0202428202020202000078
:100AA6000000000000FF000000000106000000003A
:100AB60000FC00000204180000807F000000000017
:100AC600003F1008844020100C03081020C000408E
:100AD60042CC0000445454547F54545444400000C3
:100AE600007F201000FF15151555957F00000000AA
:100AF600F8010600F0121212F2020202FE000000D5
:100B0600FF0000001F1111111F0040807F000040F0
:100B160040444454644546446454444440400000C0
:100B26000000FF49494949494949FF0000000020A2
:100B36002020BEAAAAAAAAAAAAAABE2020200000ED
:100B46008080AFAAAAAAFFAAAAAAAF80800000083E
:100B5600042322262A22FA242322262A020200011C
:100B66000909091969090949897D09090901002045
:100B760030AC6330000202FE0202625AC600002256
:100B86006722121240308F80432C102C43800000C5
:100B9600000000000000000000000000000000004F
:100BA60000000000000000000000000000000088B7
:100BB600681FC80810C85452D1129408D0100009F2
:100BC6001909FF0500FF1292FF005F807F000000F9
:100BD6000000000001E21CE00000000000000080B0
:100BE6004020100C03000000030C304080800010F1
:100BF6008C4404E40495A64424148444940C000212
:100C0600027A414143427E42424243F800000004D8
:100C160084E45C44C40002F2828282FE8080000288
:100C2600017F10103F00080808084888403F004030
:100C360020F807F0A0904C5724A4544C8080000064
:100C460000FF001F80925249292412080000000468
:100C560084848484FC4030CC0B0808F80808000023
:100C66007F201010088040211608162140800000C1
:100C7600000000000000000000000000000000006E
:100C8600000000000000000000000000002060E0FE
:100C9600E0E0E0604040C0C0C0C0808080C0E0604E
:100CA600203030101010101010103030306060C03E
:100CB600C080000000381C0C0C0C18B8F0C00000F6
:100CC600000000000000000000000000000000001E
:100CD600000000000000000000000000000000000E
:100CE60000000000000000000000000000000000FE
:100CF60000000000000000000000000000000000EE
:100D060000000000000000000000000000000000DD
:100D160000010303060C1C38F0F0603031391F0E59
:100D26000000000000000000081C1C180000000065
:100D36000101030F3FF3C203030303010100000097
:100D4600000000000000000000000000000000009D
:100D5600000000000000000000000000000000008D
:100D6600000000000000000000000000000000007D
:100D7600000000000000000000000000000000006D
:100D8600000000000000000000000000000000005D
:100D9600000000000080C0E063773E38381818185D
:100DA600100000000000000000000000808080802D
:100DB600808080C0E07F1F0000000000000000006F
:100DC600000000000000000000000000000000001D
:100DD600000000000000000000000000000000000D
:100DE60000000000000000000000000000000000FD
:100DF60000000000000000000000000000000000ED
:100E060000000000000000000000000000000000DC
:100E1600C0F8FC0E070301000000000000000000FF
:100E2600000000000000000000FCFE870301010135
:100E3600010101030302060C183870E0C0800000AF
:100E4600000000000000000000000000000000009C
:100E5600000000000000000000000000000000008C
:100E6600000000000000000000000000000000007C
:100E7600000000000000000000000000000000006C
:100E8600000000000000000000000000000000005C
:100E9600031F7FF8C00000000000000000000000F3
:100EA60000000000000000000000030F1E3C70E080
:100EB600C080000000000000000000000103070CD5
:100EC6003870E08000000000000000000000000014
:100ED600000000000000000000000000000000000C
:100EE60000000000000000000000000000000000FC
:100EF60000000000000000000000000000000000EC
:100F060000000000000000000000000000000000DB
:100F16000000000003070E1C387060E0C0C080802F
:100F260000000000000000000000000000000000BB
:100F3600010303060C183870E0C080800000000032
:100F460000000003071E38F0C0000000000000008B
:100F5600000000000000000000000000000000008B
:100F6600000000000000000000000000000000007B
:100F76000000000000000000000206060606060645
:100F860006060606060606060606060606060E0EEB
:100F96000E0E0C0E0E0C0C040404040E0E0F0F7F26
:100FA6003F1F0F0E0E0E0C0C0C8CECFC3C1C0C1C8C
:100FB6007E7E0E1E1E3E7E6C0C0C090B0F0E0E0C5A
:100FC600181830303060E0E0E3FFBE8E8C8C8C8CDD
:100FD6008C8C8C8C8C8C8C8C8C8C8C848484848473
:100FE60086868684000000000000000000000000E5
:100FF60000000000000000000000000606060606CD
:101006000606060606060606060606060606020282
:101016000606060202020202030303030303030396
:1010260003030303030303333F0F03030303030312
:101036000303030303030303030303030303030F6E
:101046001F39210101010101010101010101010114
:101056000101010307070D193121010101010101F8
:0F1066000000000000000000000000000000007B
:1030CE00030EFF004D0311FF02750308FF08F50301
:0430DE000BFF086577
:102470007FAE123217E4FDFCFFFE12321B12321542
:10248000E4FDFC7F40FE12321BE4FDFC7FB0FE1237
:10249000321BE4FDFC7F81FE12321BE4FDFC7FFF5A
:1024A000FE12321BE4FDFC7FA1FE12321BE4FDFC98
:1024B0007FA6FE12321BE4FDFC7FA8FE12321BE455
:1024C000FDFC7F3FFE12321BE4FDFC7FC8FE123292
:1024D0001BE4FDFC7FD3FE12321BE4FDFCFFFE1269
:1024E000321BE4FDFC7FD5FE12321BE4FDFC7F8035
:1024F000FE12321BE4FDFC7FD8FE12321BE4FDFC11
:102500007F05FE12321BE4FDFC7FD9FE12321BE474
:10251000FDFC7FF1FE12321BE4FDFC7FDAFE12327D
:102520001BE4FDFC7F12FE12321BE4FDFC7FDBFE90
:1025300012321BE4FDFC7F30FE12321BE4FDFC7FF7
:102540008DFE12321BE4FDFC7F14FE12321BE4FDF3
:0A255000FC7FAFFE12321B022F3D8C
:103106008F741232C27F7812317E1232A5E4FF121A
:10311600317E1232A5AF7412317E1232A50200033F
:103126008F741232C27F7812317E1232A57F40121E
:10313600317E1232A5AF7412317E1232A50200031F
:063215007F10E4FDFCFE49
:10321B008E728F73ED4C6003023126AF7312310641
:01322B002280
:103146008F1FE51F7008FDFC7FA6FE12321BE51FD0
:0D315600B40109E4FDFC7FA7FE12321B222C
:103019008F7DE57D7011FDFC7FC8FE12321BE4FD3A
:10302900FC7FA1FE12321BE57DB40112E4FDFC7F99
:0F303900C0FE12321BE4FDFC7FA0FE12321B22F0
:062FE500AD670567AF6651
:102FEB008F71ED24B0FFE433FEE4FDFC12321BE5E0
:102FFB007154F0C4540F7E004410FFE4FDFC1232F8
:0E300B001BE571540FFF7E00E4FDFC02321B3A
:10319900E4FDFC7F8DFE12321BE4FDFC7F14FE1260
:0B31A900321BE4FDFC7FAFFE02321B76
:10325700E4FDFC7F8DFE12321B123215E4FDFC7F6C
:05326700AEFE02321B67
:102F3D00E4F552E55224B0FFE433FEE4FDFC123219
:102F4D001BE4FDFCFFFE12321B123215E4F5537D1E
:102F5D00017C00E4FFFE12321B0553E553C3948040
:0B2F6D0040ED0552E552C3940840C837
:012F78002236
:102F0000E4F57BE57B24B0FFE433FEE4FDFC123204
:102F10001BE4FDFCFFFE12321B123215E4F57C7D32
:102F2000017C007F017E0012321B057CE57CC3948E
:0C2F30008040EC057BE57BC3940840C7A3
:012F3C002272
:041DCD007B3A7F508E
:041DD1008F668D6725
:101DD500E4F56BE569C313FDF56CE4F56DF56EE5AA
:101DE50069B40808756F007570068029E5691313D5
:101DF50013541FFF7E00E5695407600590000180BC
:101E050003900000E5822FFFE5833EFE7C0012264D
:101E1500AA8E6F8F70EB24E0F56BAD67AF66122F5E
:101E2500EBE56A64017077F56DF56EC3E56E957047
:101E3500E56D956F4003021F1BE56CFD7C00AE6DE3
:101E4500AF6E1226BCED4C7009E56964086003129B
:101E55002FE5E569B4080FE56B75F006A4AB0E2513
:101E650010F9E50F8016E56964106003021F1BE594
:101E75006B75F010A4AB112513F9E51235F0FAE9ED
:101E8500256EF9EA356DFA122664FF7E007D017C28
:101E95000012321B056EE56E7091056D808DE56A49
:101EA5007074F56DF56EC3E56E9570E56D956F50C3
:101EB50065E56CFD7C00AE6DAF6E1226BCED4C7019
:101EC50009E56964086003122FE5E5696408700F88
:101ED500E56B75F006A4AB0E2510F9E50F8013E54B
:101EE5006964107031E56B75F010A4AB112513F919
:101EF500E51235F0FAE9256EF9EA356DFA12266430
:101F0500F4FFE4F4FE7D017C0012321B056EE56EE4
:061F15007094056D809040
:011F1B0022A3
:0431E6008F66A90542
:1031EA007F017E00AD0119ED6009AD667C001226F3
:0331FA00AA80F1B7
:0131FD0022AF
:0729F700E4FBFAAD53AF52FF
:0829FE008F5B8D5C8A5D8B5E2E
:102A0600E4F564F565E560B40803756402E4F5620F
:102A1600E562C3955F506FC3E55F956214FD7F0A5B
:102A26001231E6AC5DAD5ECFCDCFCECCCE1226BC9C
:102A36007C007D0A1226BC8D63E5657028E55F146F
:102A4600FFE562C39F501EE5637017E560C313255B
:102A5600648562F0A4255BFF85606985616A7B20D9
:102A6600801B756501E560C31325648562F0A425A6
:102A76005BFFE5632430FB85606985616AAD5C12A6
:062A86001DD10562808AEB
:012A8C002227
:0A2E2E008F528D538B548A5589563C
:102E3800E4F559AB54AA55A95685598275830012F1
:102E4800267D602DAF5905598F8275830012267D26
:102E5800FB85576985586AAD53AF52121DD1E557A6
:102E6800B4080474068004E557C3132552F552804C
:012E7800C297
:012E79002236
:0C1F1C00755E10755F017B01E4FD7F1015
:061F28008F5B8D5C8B5DF8
:101F2E00E55E131313541FFF7E00E55E54077C001D
:101F3E0060047D0180027D00ED2FFFEC3EFEAD5E64
:101F4E007C001226AA8E628F63E55F64017077F5BE
:101F5E0060F561C3E5619563E5609562400302201B
:101F6E004CE55EFD7C00AE60AF611226BCED4C70A0
:101F7E0009AD5C055CAF5B122FEBE55EB4100FE5AF
:101F8E005D75F020A4AB08250AF9E5098016E55E1B
:101F9E00640C600302204CE55D75F018A4AB0B25B4
:101FAE000DF9E50C35F0FAE92561F9EA3560FA121A
:101FBE002664FF7E007D017C0012321B0561E56107
:101FCE0070910560808DE55F7074F560F561C3E515
:101FDE00619563E56095625065E55EFD7C00AE60DF
:101FEE00AF611226BCED4C7009AD5C055CAF5B12A7
:101FFE002FEBE55E6410700FE55D75F020A4AB0865
:10200E00250AF9E5098013E55E640C7031E55D750E
:10201E00F018A4AB0B250DF9E50C35F0FAE92561A6
:10202E00F9EA3560FA122664F4FFE4F4FE7D017CD1
:0E203E000012321B0561E56170940560809010
:01204C002271
:062C01008F148D158B16E7
:102C0700E4F51BF51CE517131313541FFFE51754C1
:102C17000760047E0180027E00EF2EF517E4F51DA4
:102C2700E51DC39517503EE51D2515FDAF14122F61
:102C3700EBE4F51EE51EC395165026AB18AA19A995
:102C47001A051CE51CAE1B7002051B14F5828E834A
:102C570012267DFF7E007D017C0012321B051E803F
:052C6700D3051D80BB38
:012C6C002245
:10193F003009030219FD756908756A017B2D7D0653
:10194F007F50121DD1756908756A017B2D7D067F49
:10195F0068121DD1756908756A017D07121DCD7555
:10196F006908756A017B3A7D077F68121DD1E4F51E
:10197F0051E55175F00384E5F075F018A42440F596
:10198F0052E55175F00384C3940140047F01800236
:10199F007F00EF2406F553743E2551F8E6FFC3642C
:1019AF0080948A4015EFFB3395E0FA755F027560FE
:1019BF0008756101AD53AF528027755F01756008DF
:1019CF007561011229F7E5522406FF743E2551F87F
:1019DF00E6FB3395E0FA755F01756008756101AD3F
:1019EF00531229FE0551E551C39406408422200964
:1019FF0003021AE2755E10755F017B157D067F503D
:101A0F00121F28756910756A017B2D7D027F2812C0
:101A1F001DD1756910756A017B2D7D027F50121DD6
:101A2F00D1756910756A017B3A7D047F28121DD12B
:101A3F00756910756A017D04121DCDE4F551E551EC
:101A4F00B55004C20A8002D20AE55175F00384E54D
:101A5F00F075F028A42410F552E55175F00384C3F6
:101A6F00940140047F0180027F00EF25E02402F5FE
:101A7F0053743E2551F8E6FFC36480948A4018EFF3
:101A8F00FB3395E0FA755F02756010A20AE433F537
:101A9F0061AD53AF52802D755F01756010A20AE4DE
:101AAF0033F5611229F7E5522408FF743E2551F8EA
:101ABF00E6FB3395E0FA755F01756010A20AE43317
:101ACF00F561AD531229FE0551E551C3940650033C
:031ADF00021A4D9B
:011AE20022E1
:10255A00E52DC3940A50277BFF7A00794675570800
:10256A007558017D047F20122E2EE52DFB7A007509
:10257A005F017560087561017D047F268012E52D73
:10258A00FB7A00755F027560087561017D047F2022
:10259A001229FE756908756A017B3A7D047F2E123D
:1025AA001DD1E52BC3940A50277BFF7A0079467523
:1025BA0057087558017D047F36122E2EE52BFB7ABB
:1025CA0000755F017560087561017D047F3C8012AA
:1025DA00E52BFB7A00755F027560087561017D0461
:1025EA007F361229FE756908756A017B2E7D047F84
:1025FA0044121DD1E524C3940A50277BFF7A00793F
:10260A00467557087558017D047F4C122E2EE52415
:10261A00FB7A00755F017560087561017D047F5260
:10262A008012E524FB7A00755F0275600875610106
:08263A007D047F4C1229FE22F1
:10227F008F52E552640A7055755E10F55FFBFDFFD6
:10228F00121F28755E10E4F55F7B01FD7F10121F92
:10229F0028755E10755F017B027D02E4FF121F2817
:1022AF00755E10755F017B037D027F10121F28750D
:1022BF005E10755F017B0A7D04E4FF121F28755EB7
:1022CF0010755F017B0B7D047F10121F28E5526490
:1022DF000C704A755E10755F01FBFDFF121F28120F
:1022EF001F1C755E10E4F55F7B027D02FF121F2835
:1022FF00755E10E4F55F7B037D027F10121F28755A
:10230F005E10755F017B0A7D04E4FF121F28755E66
:10231F0010755F017B0B7D047F10121F28E552643F
:10232F000E704A755E10755F01FBFDFF121F2812BC
:10233F001F1C755E10755F017B027D02E4FF121F8B
:10234F0028755E10755F017B037D027F10121F28B9
:10235F00755E10E4F55F7B0A7D04FF121F28755E22
:0E236F0010E4F55F7B0B7D047F10121F282207
:102D8500755E10755F017B0CE4FDFF121F28755EF3
:102D950010755F017B0D121F247BFF7A0079487542
:102DA5005710755801E4FD7F20122E2E755E1075A3
:102DB5005F017B0EE4FD7F40121F28755E10755F75
:102DC500017B04E4FD7F50121F28755E10755F01BD
:092DD5007B05E4FD7F60021F286C
:102B8E00755E10755F017B0FE4FDFF121F28755EE9
:102B9E0010755F017B0A121F24755E10755F017B35
:102BAE000BE4FD7F20121F28755E10755F017B02FE
:102BBE00E4FD7F30121F28755E10755F017B10E4F7
:102BCE00FD7F40121F28755E10755F017B027D022E
:102BDE007F20121F28755E10755F017B097D027FB5
:102BEE0040121F28755E10755F01E4FB7D027F6049
:032BFE00021F288B
:10237D00E5397006C209D20AD20BE539B40106D28D
:10238D0009C20AD20BE539B40206D209D20AC20B30
:10239D00755E10A209E433F55F7B02E4FDFF121FA9
:1023AD0028755E10A209E433F55F7B10121F2475AA
:1023BD005E10A209E433F55F7B0AE4FD7F20121F56
:1023CD0028755E10A209E433F55F7B0BE4FD7F30C9
:1023DD00121F28755E10A20AE433F55F7B117D0292
:1023ED00E4FF121F28755E10A20AE433F55F7B121D
:1023FD007D027F10121F28755E10A20AE433F55F6F
:10240D007B0A7D027F20121F28755E10A20AE4331D
:10241D00F55F7B0B7D027F30121F28755E10A20BBE
:10242D00E433F55F7B187D04E4FF121F28755E1001
:10243D00A20BE433F55F7B197D047F10121F287505
:10244D005E10A20BE433F55F7B0A7D047F20121F23
:10245D0028755E10A20BE433F55F7B0B7D047F3096
:03246D00021F2823
:102E7A00755E10755F017B11E4FDFF121F28755EF8
:102E8A0010755F017B12121F24755E10755F017B3E
:102E9A0013E4FD7F20121F28755E10755F017B14F5
:102EAA00E4FD7F30121F28756910756A017B3AE4C8
:062EBA00FD7F40021DD166
:10217B00755E10755F017B0FE4FDFF121F28755E06
:10218B0010755F017B18E4FD7F30121F28755E1000
:10219B00755F017B19E4FD7F40121F282007157521
:1021AB005E10755F017B16121F24755E10755F0143
:1021BB007B17801630071A755E10755F017B1A123C
:1021CB001F24755E10755F017B1BE4FD7F20121FC2
:1021DB0028E4FFE545B5070874572FF8E4F68006A9
:1021EB0074572FF876010FBF04E9AE31AF327C0381
:1021FB007DE81226BCAA06AB07755F0275601085D9
:10220B0057617D02E4FF1229FEAE31AF327C007DB7
:10221B00641226BC7C007D0A1226BCAA04AB057591
:10222B005F027560108558617D027F101229FEAE2A
:10223B0031AF327C007D0A1226BC7C007D0A12264F
:10224B00BCAA04AB05755F027560108559617D02F0
:10225B007F201229FEAE31AF327C007D0A1226BCE4
:10226B00AA04AB05755F02756010855A617D027F0C
:04227B00300229FE06
:03000000022A8D44
:0C2A8D00787FE4F6D8FD75817D022AD424
:10264200C2D530F707B2D563F0FF05F030E70CB220
:10265200D5F4048463F0FF05F080018430D502F4E0
:02266200042250
:10266400BB010689828A83E0225002E722BBFE0274
:09267400E32289828A83E49322A7
:10267D00BB010CE58229F582E5833AF583E0225012
:10268D0006E92582F8E622BBFE06E92582F8E2225C
:0D269D00E58229F582E5833AF583E4932276
:1026AA00EF8DF0A4A8F0CF8CF0A428CE8DF0A42E44
:0226BA00FE22FE
:1026BC00BC000BBE0029EF8DF084FFADF022E4CC02
:1026CC00F875F008EF2FFFEE33FEEC33FCEE9DECCB
:1026DC00984005FCEE9DFE0FD5F0E9E4CEFD22ED11
:1026EC00F8F5F0EE8420D21CFEADF075F008EF2F5B
:1026FC00FFED33FD4007985006D5F0F222C398FD4C
:05270C000FD5F0EA22E8
:102A99000227DBE493A3F8E493A34003F68001F251
:102AA90008DFF48029E493A3F85407240CC8C3333E
:102AB900C4540F4420C8834004F456800146F6DF0D
:102AC900E4800B01020408102040809030BEE47EAF
:102AD900019360BCA3FF543F30E509541FFEE49302
:102AE900A360010ECF54C025E060A840B8E493A3C9
:102AF900FAE493A3F8E493A3C8C582C8CAC583CAF4
:102B0900F0A3C8C582C8CAC583CADFE9DEE780BEAB
:0130E20000ED
:00000001FF
